:020000040000FA
:0400000019EF00F004
:100008007A82D9CF5CF0DACF5DF0F3CF5EF0F4CF2F
:100018005FF0CEEC0BF05FC0F4FF5EC0F3FF5DC095
:10002800DAFF5CC0D9FF7A9211005DEF0AF08DD338
:100038007CEC0DF0D8A0120005EC0DF0DAEC0DF018
:1000480025505EEC0DF04A68DCEC0DF091EC0DF0FB
:10005800010E226E010C020E4A1805E1255001E03E
:100068002506226A1200080E4A1805E1050E2560C9
:10007800F8D7252AF6D70A0E4A1811E1050E2518D1
:100088000EE105EC0DF0DEEC0DF0B20E636E1F0E06
:10009800646E76EC0DF04A680B0E226E0B0C0A0E9D
:1000A8004A1809E1255007E1DEEC0DF005EC0DF0EA
:1000B8000C0E226E0C0C0A0E4A180AE1040E2518C2
:1000C80007E105EC0DF0DEEC0DF0020E226E020CDD
:1000D8000A0E4A180DE1030E25180AE1D4EC0DF0BA
:1000E800000906E0DEEC0DF0256A1C0E226E1C0CE1
:1000F8000A0E4A18D8A41200020E2518D8A4120015
:10010800D4EC0DF00009D8B41200DEEC0DF0256A2D
:1001180005EC0DF0240E226E240C7CEC0DF0D8A01A
:100128001200D00E636E1F0E646E76EC0DF0030E97
:10013800226E030C52EC0DF00BE30B0E4A1808E08C
:100148007CEC0DF005E3E4EC0DF005EC0DF0BDD70B
:100158000B0E4A18D8A412007CEC0DF082E21200B3
:100168007CEC0DF0D8A012009CDBD5EC09F0F50E64
:10017800636E1F0E646E76EC0DF08CEC0DF0050EC0
:10018800226E050C4ABE12004A50300F306E3050B5
:1001980030EC0BF04A68060E226E060C4ABE1200BE
:1001A8004A50300F316E315030EC0BF04A68070E70
:1001B800226E070C3A0E30EC0BF0080E226E080C7B
:1001C8004ABE12004A50300F326E325030EC0BF0FB
:1001D8004A68090E226E090C4ABE12004A50300FB6
:1001E800336E335030EC0BF04A680A0E226E0A0C5C
:1001F8000A0E4A18D8A41200300E606E46EC0CF0B5
:100208004A6891EC0DF02DD77CEC0DF0D8A01200C7
:1002180048DBD5EC09F0E2EC0DF0716E71C063F0CB
:10022800646A76EC0DF0040E226E040C7CEC0DF082
:10023800D8A01200C10E636E1F0E646E76EC0DF02E
:100248000D0E226E0D0C4A040BE1D4EC0DF00009E2
:1002580007E005EC0DF0256A4A68140E226E140CAE
:10026800020E4A18D8A412004A68CAEC0DF08CECA9
:100278000DF005EC0DF0DD0E636E1F0E646E76EC6E
:100288000DF0100E226E100C7CEC0DF019E34950A5
:10029800800A500F15E34A50800A760F11E2D4EC19
:1002A8000DF0716E140E71600BD0495030EC0BF0EC
:1002B8004A684950ACEC0BF04968130E226E130CD7
:1002C8000A0E4A1817E1D4EC0DF0716E140E716025
:1002D80011D091EC0DF0000EACEC0BF0DCEC0DF055
:1002E80005EC0DF0D4EC0DF0716E7104256E180E4E
:1002F800226E180C0B0E4A1806E0D4EC0DF0716E45
:10030800130E7164130C91EC0DF0D8EC0DF0256A06
:10031800A8D67CEC0DF0D8A0120005EC0DF06AEC24
:100328000DF0686A030ED5EC09F0255029EC0DF0A4
:100338008EDA76EC0DF04A68170E226E170C7CECFC
:100348000DF0D8A01200110E226E110C7CEC0DF0ED
:10035800D8A012004A68255029EC0DF078DA76EC1E
:100368000DF02550B6EC0DF058EC0DF0190E226E7C
:10037800190C7CEC0DF0D8A0120093DAD5EC09F03A
:10038800E90E636E1F0E646E76EC0DF04A680E0E71
:10039800226E0E0C7CEC0DF0D8A0120082DAD5EC9F
:1003A80009F0246AD6EC0DF0CED7080E4A1809E1F8
:1003B80071687268D4EC0DF04FDA01E34ED7252A44
:1003C8004CD7020E4A1805E1255001E146D725060B
:1003D80044D70B0E4A1802E14A686CD20A0E4A1832
:1003E800D8A4120005EC0DF082D77CEC0DF0D8A053
:1003F80012005ADAD5EC09F04CDAD4EC0DF03EDAFA
:1004080006E3252829EC0DF022DA76EC0DF0150E1E
:10041800226E150CE0EC0DF0FF0AD8A412007CEC5B
:100428000DF0D8A01200F0EC0DF0000E686AD5ECC3
:1004380009F0AB0E636E1F0E646E76EC0DF01A0EAB
:10044800226E1A0C7CEC0DF0D8A012002ADAD5EC3A
:1004580009F0AB0E636E646A76EC0DF04A681B0E09
:10046800226E1B0C7CEC0DF0D8A012000A0E4A1864
:10047800D8A412001FD205EC0DF06AEC0DF0686AE2
:10048800030ED5EC09F04A68255029EC0DF0DFD9A8
:1004980076EC0DF01D0E226E1D0C7CEC0DF0D8A034
:1004A800120002DAD5EC09F0F4D9D4EC0DF0E6D953
:1004B80006E3252829EC0DF0CAD976EC0DF01E0EBE
:1004C800226E1E0C080E4A180CE17CEC0DF009E3B4
:1004D80071687268D4EC0DF0BFD901E306D6252AFD
:1004E80004D6020E4A1808E17CEC0DF005E325500D
:1004F80001E1FBD52506F9D50B0E4A18BBE00A0E1B
:100508004A18D8A41200220E226E220C7CEC0DF0A0
:10051800D8A01200C9D9D5EC09F09F0E636E1F0E42
:10052800646E76EC0DF0200E226E200C080E4A1830
:1005380002E1788CE8D7020E4A1802E1789CE3D7EA
:100548000A0E4A1806E178AC04D0255087EC0DF065
:10055800DED60A0E4A18D8B478BC120005EC0DF0A5
:10056800900E636E646A76EC0DF04A68210E226E76
:10057800210C7CEC0DF0D8A0120093D9D5EC09F031
:10058800CAEC0DF0246A8CEC0DF0230E226E230CBD
:100598000A0E4A1801E16ED70A0E4A18D8A44ABEB4
:1005A8001200495030EC0BF04A6824C060F049C092
:1005B80061F025508BEC0CF0242A4968E6D77CECD6
:1005C8000DF0D8A01200000E686AD5EC09F025508D
:1005D80029EC0DF03CD976EC0DF0252A250E226E7B
:1005E800250C7CEC0DF011E3D4EC0DF025600DD05A
:1005F80058D9D5EC09F0255029EC0DF028D976EC1E
:100608000DF0252A260E226E260CD4EC0DF02518A6
:10061800D8A412007CEC0DF0D8A01200686A110E64
:10062800D5EC09F0250429EC0DF011D976EC0DF084
:10063800280E226E280C7CEC0DF012E3D4EC0DF0A1
:1006480025600ED0686A110ED5EC09F0255029EC0A
:100658000DF0FDD876EC0DF0252A270E226E270C1A
:10066800D4EC0DF02518D8A412007CEC0DF0D8A01D
:100678001200686A110ED5EC09F02550FE0F29EC1E
:100688000DF0E5D876EC0DF02B0E226E2B0C7CECE1
:100698000DF00FE3D4EC0DF025600BD008D9D5ECA4
:1006A80009F0255029EC0DF0D2D876EC0DF0252A6A
:1006B800BFD7D4EC0DF02518BBE012007CEC0DF090
:1006C800D8A012002350F7EC0CF0246A290E226EF1
:1006D800290C2350C5EC0CF061BE08D0E90E605C13
:1006E800030E615803E32A0E226E2A0C0B0E4A18D9
:1006F80001E1C0D61200100E246007D02350F7EC99
:100708000CF0CDEC0DF0242AE1D70F0E246405D0AF
:10071800D4EC0DF0256001D075D70F0E24640F0CB2
:10072800D4EC0DF02518D8A41200256AF3D47CEC7B
:100738000DF0D8A01200BBD8D5EC09F0250429EC9F
:100748000DF085D876EC0DF073D72250716E726A71
:100758007250D8A41200715001E16AD4010A01E173
:100768007AD4030A01E1D9D4010A01E14DD5070A77
:1007780001E1E0D4010A01E105D5030A01E10ED542
:10078800010A01E117D50F0A01E11AD5010A01E1B1
:1007980023D5030A01E12CD5010A01E1E1D4070AB6
:1007A80001E144D5010A01E1E4D5030A01E14BD591
:1007B8001E0A01E1EFD5010A01E166D5020A01E14D
:1007C800BED5070A01E1A5D5010A01E1EED5020A65
:1007D80001E10BD60F0A01E1B9D5010A01E11AD6E8
:1007E800030A01E12FD6010A01E13CD6070A01E11B
:1007F80042D6010A01E151D6030A01E163D6010A92
:1008080001E184D63F0A01E191D6010A01E1B1D69E
:10081800030AD8B41200010A01E1BAD6070A01E1B5
:10082800CED6010A01E1DDD6030A01E104D7010AA7
:1008380001E12DD70F0A01E141D7010A01E149D7AA
:10084800030A01E158D7010A01E171D7120060C01B
:1008580063F061C064F01200736E746A715073269D
:10086800725074222550756E766A7350755C765096
:10087800800A776E7450800A77581200736E746A13
:100888007150735C7450800A756E7250800A755886
:1008980012002550716E726A020E7126000E7222C5
:1008A800000C010E686E000C010E686E030C010E40
:1008B800686E110C256A226A120002D1110E1660A8
:1008C8000ED078AA0CD0000E686AD5EC09F0255035
:1008D800160D35D976EC0DF0050E1C6E050C100EB4
:1008E8001664100C78AA100C1C2A12000F0E1B6438
:1008F80012D01A2A482A0AD9485013D901E1486A5D
:1009080005D91A500ED901E11A6A1B6A1AC018F0E3
:10091800060E1C6E060C100E1B60100C686A1B502D
:10092800D5EC09F0F3D81850FCD830EC0BF01B2AA2
:10093800182AECD81850F5D8D8B4186A1200050E41
:10094800256016D06AEC0DF0CFD76AEC0DF01C6A62
:1009580012007CEC0DF008E3050E256005D06AEC6A
:100968000DF0070E1C6E070C7CEC0DF0D8A01200E1
:10097800040E2564040CE9D778B878AA1200166A20
:10098800156A000E686AD5EC09F01A6A0F0E486EEF
:10099800196A0F0E476E1B6A186A176A7898A4D7E7
:1009A800B5D81650BED804E1040E256401D09CD7F2
:1009B800ADD81650B6D802E0162A1200050E2560EA
:1009C800050CA4D81650ADD8D8A412000D0E1C6E74
:1009D8000D0C110E156010D078AA0ED055EC04F04D
:1009E800D5EC09F02550160D160EF326000EF4224C
:1009F800A6D876EC0DF078D7100E1564100C78AAEE
:100A0800100C090E1C6E090C100E1B6014D0010E80
:100A1800686E1B50D5EC09F079D817508CD881D85E
:100A280030EC0BF01B2A172A71D8175084D879D8C4
:100A3800D8B4176A12000F0E1B640F0C192A472A24
:100A480065D8475078D86DD801E1476A5FD8195002
:100A580072D867D801E1196A1B6A19C017F044D720
:100A68001D50C5EC0CF061BE0AD070D808E378A818
:100A780078AA05D005EC0DF0020E1C6E020C78B8B1
:100A880078AA120005EC0DF062D71D50F7EC0CF0B7
:100A98002BD77CEC0DF0D8A012001D50F7EC0CF011
:100AA8000B0E1C6E0B0C32D8155045D83AD802E004
:100AB800152A12002BD815503ED833D8DDE0120085
:100AC8001C50716E726A7250D8A41200715001E104
:100AD80053D7010A01E164D7030A01E1EFD6010AFD
:100AE80001E104D7060A01E134D7030A01E127D757
:100AF800010A01E16ED70F0ACCE0010A85E0030A7A
:100B0800C4E0010AADE0060ACEE012002550160D39
:100B18001B0E716E1F0E726EF3507126F450722206
:100B280012007126000E722271C0F6FF72C0F7FF24
:100B38000800F55012007126000E7222160C1B0ECA
:100B4800F324636E1F0EF420646E1200D00E605CF6
:100B5800070E6158120092D040BE1200405029EC96
:100B68000DF060C001F061C002F0082A1200ACA2CA
:100B78001200A0D803E10D0EAD6EF7D79BD8AD6E6D
:100B8800014A022A12003F2806E0ACA204D03FC066
:100B9800ADFF3F6812009EAA120097D8D5EC09F065
:100BA800AECF09F0AE5030EC0BF0DFD79EAA1200A2
:100BB800580E091809E0010E686E0D0ED5EC09F003
:100BC800AE5030EC0BF0D1D7AECF09F040504CEC22
:100BD8000DF0716E0950715C03E20950AAEC0DF03A
:100BE80082EC0DF00950AEEC0DF0050E086E050C08
:100BF8009EAA1200010E686E0E0ED5EC09F0AE50DA
:100C080030EC0BF0020E086E020C7CEC0DF0D8A054
:100C18001200D2EC0DF0FA0AD8A4120005EC0DF07F
:100C2800686A070ED5EC09F0D0EC0DF049D876ECDF
:100C38000DF09BD77CEC0DF0D8A0120082EC0DF0E3
:100C480040504CEC0DF0AEEC0DF08FD77CEC0DF075
:100C5800D8B0086A12007CEC0DF0D8A01200D2ECD3
:100C68000DF0FA0AD8A4120030D8D5EC09F0D0EC6F
:100C78000DF026D876EC0DF0406877D70850716EE5
:100C8800726A7250D8A41200715001E165D7010A46
:100C980001E16DD7030A01E176D7010A87E0070A67
:100CA800A7E0010AB2E0030AC5E0010AD4E00F0A8E
:100CB800CDE0120001C0D9FF02C0DAFFDF501200F8
:100CC800716E71C063F0646A1200010E686E0C0CDC
:100CD80098D0452808E078A206D04450F7EC0CF0EC
:100CE800030E106E030C4528D8A412004450C5EC1E
:100CF8000CF061BE1200A2D8D8A012004628D8A4D1
:100D080078A212004650A6EC0DF04668436812001F
:100D1800435045180CE14450C5EC0CF061BE02D0BC
:100D28008DD805E24568112A462A102A120045285E
:100D3800D8B4120043504518D8B412004650A6EC57
:100D48000DF0455075D845C043F0116A4568100646
:100D58001200070E431806E0090E431803E0050EBB
:100D6800106E050C070E431804E0090E4318D8A4AA
:100D78001200060E106E060C4550800A7E0F07E31F
:100D88004550800A760F03E2010E106E010C4550A3
:100D9800800A7E0F09E2462807E14550300FA6EC8D
:100DA8000DF04568106A12004550800A7E0FD8B0D1
:100DB80012004628D8B412004650A6EC0DF046683A
:100DC800102A12004550300FA6EC0DF0EAD7040E99
:100DD800111804E143502CD8116AE4D7030E1118F6
:100DE80004E14350300F466EDDD7030E1160120048
:100DF800D9D7040E1118F5E0050E1118EBE0040E12
:100E0800F5D71050676E686A6850D8A4120067500A
:100E180001E15FD7010A01E17BD7030A9AE0010AE1
:100E2800ABE0070ACFE0010AD2E0030AE2E01200D1
:100E3800330FD96EDA6ADF50466E1200E80E605C36
:100E4800030E6158120083A003D0676A672A01D095
:100E5800676A010E83A2000E020DF3CF68F0010E3F
:100E680083A4000E030DF3CF69F0010E83A6000ED4
:100E7800040DF3506924682467241E6E5BD01E504D
:100E880006E18C888C9A8C9C1F6A202A12001E50BE
:100E9800D8B412002150F7EC0CF0030E206E030CAE
:100EA8001E5006E18C988C8A8C9C010E1F6EEDD723
:100EB8001E50D8B412002150F7EC0CF0EED71E509B
:100EC80007E18C988C9A8C8C020E1F6E206A120097
:100ED8001E50D8B412002150F7EC0CF0D6D7215090
:100EE800C5EC0CF061BE1200D0D71E5003E1010E14
:100EF800206E010C1E50D8B4120033D89AEC0DF0B5
:100F080030D896EC0DF02DD8C6EC0DF0BED71E509B
:100F1800D8A412002150F7EC0CF0B7D72150C5EC3B
:100F28000CF0E0D71E5003E0050E206E050C1E5095
:100F3800CDE012002050676E686A6850D8A412008D
:100F480067509DE0010AACE0030AB9E0010AC7E076
:100F5800070ACBE0010ADBE0030AE0E0010AE2E06D
:100F680012001E50030DF3509C0F1F24D96EDA6A2D
:100F7800DF50120041D078A005D0130E0D6402D0C6
:100F88007890130C78A005D0140E0D6002D00C2AAE
:100F9800140C42BE120055D8D96E010EF420DA6E38
:100FA800DF6A42503FD8DF6A020E0C6E020C78A04E
:100FB8000C0612002ED8B2EC0CF03CD8DF5014E02E
:100FC8004250800A6C0F10E224D8B2EC0CF032D8F0
:100FD80038D8E16E010EF420E26E0B0EDBCFE3FF92
:100FE800E806FCE2422A12004250800A6C0FD8A0A0
:100FF800120042680C6A12000C50666E676A6750ED
:10100800D8A412006650B7E0010AD1E0030AD2E082
:1010180012004250606E616A60BE6106636A0C0E1F
:10102800626E0C0C0C0D0B0EF324D96E010EF4201D
:10103800DA6E12000C0E6024D96E010E6120DA6E91
:10104800120042500C0D000EF32412006C6E60EC7E
:101058000CF02B6E6CC02FF06BC02EF02C6A2D6A32
:101068009498959E949A6D6A6E6A686AC80E676EBF
:101078002B50D8EC0CF0030E1FEC0AF0686A0A0E2D
:10108800676E2B50D8EC0CF0030E1FEC0AF036D824
:10109800D8EC0CF0030E1FEC0AF030D8D8EC0CF0AA
:1010A800020E1FEC0AF02AD8D8EC0CF0280EE9EC56
:1010B8000CF0EFEC0BF0080EE9EC0CF0EFEC0BF099
:1010C800010EE9EC0CF00DEC0DF0D8EC0CF0EFECA7
:1010D8000BF0060EE9EC0CF0EFEC0BF00F0EE9EC60
:1010E8000CF06D4A6E2A6EBEC0D76E5002E091EFCA
:1010F8000DF0020E6D5CB9E391EF0DF0686A020E17
:10110800676E2B5012003ED078AE1200010E286E8A
:101118002950F7EC0CF02750F7EC0CF0262A1200B7
:1011280078AE26062950C5EC0CF03BD805E28A803B
:101138002950F7EC0CF0262A2750C5EC0CF061BEBC
:101148001200DD0E605C050E6158D8A01200030E77
:10115800266E030C2950C5EC0CF023D8D8B0120029
:101168008A902950F7EC0CF0260612002750F7EC6D
:101178000CF0282A0A0E286402D0010E286E010EEF
:10118800266E010C2650676E686A6850D8A4120053
:101198006750BAE0010AC4E0030ADCE0010AE6E0AD
:1011A80012002850676E686A6050675C6850800A51
:1011B800696E6150800A695812004ED0C2B20AD0D6
:1011C800C80EC46007D0320EC46404D0070EC26EC5
:1011D8000E2A070CC2B20BD0C70EC46408D0020E88
:1011E8000F1803E0020EC6EC0DF0020E0CD0C2B2CE
:1011F8001200330EC460330C080E0F1803E0080EFB
:10120800C6EC0DF0080E0F6EE1D7C2B20AD0C80EB8
:10121800C46007D0320EC46404D0030EC26E0E063A
:10122800030CC2B20BD0C70EC46408D0060E0F1848
:1012380003E0060EC6EC0DF0060E0CD0C2B212008A
:10124800330EC460330C040E0F1803E0040EC6EC12
:101258000DF0040E0F6EE1D70E50616E626A625097
:10126800D8A412006150AAE0010ACFE0120045D0CC
:101278001350C5EC0CF061BE1200AAEC05F0D8A022
:1012880012001350F7EC0CF0142A78844F2A3A0E07
:101298004F1803E1300E4F6E4E2A3B0E146408D0EF
:1012A800146A552A3A0E551803E1300E556E542A21
:1012B800360E54180AE1300E556E546E522A3A0E04
:1012C800521803E1300E526E512A360E4E180AE1BA
:1012D800300E4F6E4E6E4C2A3A0E4C1803E1300E0B
:1012E8004C6E4B2A310E516406D0330E526403D033
:1012F800300E526E516E126A12001250676E686A92
:101308006850D8A412006750B3E012003FD04128BB
:10131800D8B412007CEC0DF0D8A012004150BAEC01
:101328000DF0EEEC0DF055EC04F0D5EC09F0800E64
:10133800636E646A76EC0DF00A2A1200E6EC0DF092
:10134800FF0A05E1ECEC0DF041680A06120064ECB6
:101358000DF015E37CEC0DF012E3EAEC0DF0010E54
:10136800686E020ED5EC09F0E8EC0DF0706E70C0F6
:1013780063F0646A76EC0DF00C0EBEEF0DF00BBE58
:1013880012000B50BEEC0DF00B6812000A50706E84
:10139800716A7150D8A412007050B9E0010ACEE009
:1013A80012006F6E30D0685004E06C6A400E6B6EAD
:1013B80002D06B6A6C6A6F506B246D6E000E6C20E5
:1013C8006E6E2ED06FC06DF06E6A680402E1400E3A
:1013D80004D0020E681804E12E506D26000E0DD0C0
:1013E800030E68181DE12E50696E6A6A400E692660
:1013F800000E6A2269506D266A506E2211D06FC0A5
:101408006DF06E6A0DD02F50696E6A6A6A50F7E106
:101418006950010AF4E0030AC6E0060AD3E0EFD7F0
:10142800EFEC0BF06D508009E9EC0CF068C02DF082
:101438006FC02CF01200616E94962FD88B8861A62D
:1014480003D0606A602A01D0606A60462DD8F70B25
:1014580060188B6E61A403D0606A602A01D0606A4C
:1014680023D8FB0B60188B6E61A203D0606A602AD8
:1014780001D0606A60468B506018FD0B60188B6E57
:1014880061A003D0606A602A01D0606A8B5060183E
:10149800FE0B60188B6E8B98120094949492949023
:1014A8008B9A8C9E8B881200604660468B50601821
:1014B8001200540EF66E180EF76E000EF86E00EE5F
:1014C80080F010EE37F00900F5CFEEFFE550E1505F
:1014D800FAE13E0EF66E190EF76E000EF86E00EE8B
:1014E80035F010EE26F00900F5CFEEFFE550E1509B
:1014F800FAE101EE00F0F00EEE6AE806FDE100EE1A
:10150800B7F0180EEE6AE806FDE1796A786A00EE2F
:1015180001F0340EEE6AE806FDE17A907A92000E48
:10152800F86E0001FEEF0AF0616E61A603D0606AF2
:10153800602A01D0606A604625D8F70B60188B6E68
:1015480061A403D0606A602A01D0606A1BD8FB0BD3
:1015580060188B6E61A203D0606A602A01D0606A4D
:1015680060468B506018FD0B60188B6E61A003D02D
:10157800606A602A01D0606A8B506018FE0B6018A0
:101588008B6E1200604660468B5060181200616EC8
:1015980061AE03D0606A602A01D0606A604625D8CF
:1015A800F70B60188B6E61AC03D0606A602A01D0BB
:1015B800606A1BD8FB0B60188B6E61AA03D0606A47
:1015C800602A01D0606A60468B506018FD0B601875
:1015D8008B6E61A803D0606A602A01D0606A8B5064
:1015E8006018FE0B60188B6E1200604660468B50C8
:1015F8006018120012EC0DF01EEC0DF076EC0CF0F9
:1016080044EC0DF033EC0DF0100E6B6E020E2AEC6C
:1016180008F09EEC0DF0C2EC0DF03CEC0DF0A2ECE5
:101628000DF0B2EC0DF087EC08F061EC04F0BEECC4
:1016380007F01BEC00F08AEC09F0AFEC05F05AEC6F
:101648000BF03BEC09F0E1EC08F027EC07F06CEC50
:1016580006F084EC0BF0E7D7706EEFEC0BF07050EF
:101668000EEC0CF02C2A030E2F1807E1130E2C6435
:10167800130C2C6A2D2A030E09D0020E2F180AE12A
:10168800270E2C64270C2C6A2D2A010E2D6409D0F4
:101698002D6A07D02D04D8A41200270E2C6401D07F
:1016A8002C6A2DC068F02C50D5EF09F01ED0FA0E28
:1016B8003E18D8B41200592A3A0E591803E1300ED0
:1016C800596E582A3A0E581803E1300E586E572AA8
:1016D8003E06010E076E010C3E5004E1FA0E3E6E06
:1016E800076A12003E50FCE112000750606E616A02
:1016F8006150D8A412006050DAE0010AEDE012004F
:1017080079A0120018D8F76403D00800F55001D06A
:1017180019D830EC0BF0054A062A0DD8F76403D027
:101728000800F55001D00ED80009D8A4120079900D
:10173800056A066A120005C0F6FF06C0F7FFF86AD8
:10174800010E1200F6CFE1FFF7CFE2FFE7501200DB
:10175800626E78A003D00DD862C0DFFF625002E04D
:10176800242A120006D8000EDF6A246A78900D2A0F
:1017780012000D500C0D000E606E010E616EF350DC
:101788006026F450612224506024D96E000E612036
:10179800DA6E1200D76AEC0ED66EF294034A042A67
:1017A800480E035CEE0E0458D8A012002A6A070EF1
:1017B8002A6401D00DD06FEC0CF0DE0407E12A504A
:1017C800FFEC0CF00350DE5E0450DD5A2A2AEFD7F6
:1017D800036A046A120094869484948294808B9A93
:1017E8008C8E2B50F7EC0CF08B888B88000E82B611
:1017F800010E676E8B988B988B888B888B988B984B
:101808002B50C5EC0CF06050611001E012006750DD
:10181800EBE11200626E94969494949294908B8A61
:101828008C9E8B886250CBEC0AF00BD8625098ECF7
:101838000AF000D08B888B98948694849482948044
:1018480012008B888B988B988B881200542030302C
:101858003A3030207C20532030303000456E74659B
:1018680072204E6577204E616D6500010203040504
:10187800060708090A000B486967682073636F72D6
:03188800653A00BE
:10188C006050D96EDA6ADF50516E6050D96EDA6AE8
:10189C00D92ADF50526E6050D96EDA6A020ED92600
:1018AC00DF50546E6050D96EDA6A030ED926DF50C1
:1018BC00556E12002A6A05D02A2A080E2A1801E150
:1018CC00FF0C07D8DE04F8E004D8010EDF6E2A50B6
:1018DC0012002A50030DF350B90FD96EDA6A1200B8
:1018EC00D09EF28EF28CF28AF294C70ED56ED76A25
:1018FC00EC0ED66ED58E2A6A070E2A6401D0070C20
:10190C006FEC0CF0DF6A2A2AF7D7646E64500C0D6A
:10191C00000E626E010E636EF3506226F450632269
:10192C0060506224D96E000E6320DA6E61C0DFFF56
:10193C0012004144474A4D50545700FAFFFFFFFF35
:10194C00FFFFFFFF0F0FFFFF30303A303000303019
:10195C003A3030003030300060506202F3CF64F027
:10196C00F4CF65F060506302F3506526615062025B
:10197C00F350652664C060F065C061F01200646EBF
:10198C0003C065F004C066F06450FFEC0CF0DECFD1
:10199C0062F0DDCF63F06250655C606E6350665838
:1019AC00616E12006A6E6A50F7EC0CF06A50C5EC6E
:1019BC000CF06750605C6150800A696E6850800A58
:1019CC006958F4E31200626E949651EC0AF062507E
:1019DC00CBEC0AF025EC0CF0625098EC0AF01EEF00
:1019EC000CF0606E605005D803C0DEFF04C0DDFF54
:1019FC001200030DF350B70FD96EDA6A1200EFEC38
:101A0C000BF0010EE9EC0CF002D8D8EF0CF0686A80
:101A1C00060E676E2B501200030E926EE00E936E44
:101A2C008A968A90C00E946E8F0E956E8C6A1200F8
:101A3C00240EAC6E900EAB6E080EB86E040EB06E2B
:101A4C00100EAF6E100C626E62500C0D000EF32473
:101A5C00606E010EF420616E1200010EC26E0D0E4E
:101A6C00C16E090EC06E7F0EC46E7F0C60EC0CF064
:101A7C00136E1350F7EC0CF07896120060EC0CF02F
:101A8C00296E60EC0CF0276E789E1200606E605030
:101A9C0016EC08F0DF50120078B602D0D890120085
:101AAC00D8801200300E4B6E4C6E4E6E4F6E300C5A
:101ABC00606E788860C025F0788A120078B402D005
:101ACC00D8901200D8801200000E686AD5EC09F08C
:101ADC0070EF0DF02D0E30EC0BF03E0E30EF0BF0E6
:101AEC0063C005F064C006F07980120079A002D0C2
:101AFC00D8901200D8801200300E576E586E596E66
:101B0C00300C606E60C042F00D061200EFEC0BF072
:101B1C000E0EE9EF0CF0EFEC0BF00C0EE9EF0CF005
:101B2C00606E60C045F01200606E60C04AF012003A
:101B3C0060EC0CF0216E120060EC0CF0446E1200A4
:101B4C00606E60C049F01200606E60C00BF1120054
:101B5C00606E60C03EF0120060EC0CF0236E120060
:101B6C00606E60C041F01200606E60C040F0120008
:101B7C00606E60C03FF0120060EC0CF01D6E120045
:101B8C00606E60C00BF01200788245681200180E6F
:101B9C00E9EF0CF0570E12003E5012000D501200DF
:101BAC007880120078901200788A120078921200D5
:101BBC00789A120041501200510E120078961200C1
:101BCC00405012004B0E120078941200789E1200B6
:061BDC00788E12001200D9
:101F1A0000312E204E65772067616D650000000054
:101F2A0000000000000000322E2053686F772074F2
:101F3A006F7020352073636F7265732000332E2013
:101F4A0053686F7720757365727300000000000094
:101F5A00000000342E204D6F646966792075736520
:101F6A00727300000000000000352E2053686F775E
:101F7A002074696D65000000000000000000003652
:101F8A002E204D6F646966792074696D65000000C2
:101F9A00000000000044656C657465205573657225
:101FAA000053636F72653A00456E746572206E6500
:101FBA00772074696D6500312E2053656C656374F2
:101FCA0020557365720043757272656E7420546988
:101FDA006D6500456E746572206E616D653A0032FA
:101FEA002E204E65772055736572002848483A4D71
:061FFA004D293A20000011
:020000040020DA
:08000000FFFFFFFFFFFFFFFF00
:020000040030CA
:0E000000FF061F1EFF8181FF03C003E00340C7
:00000001FF
